{
  "_format": "hh-sol-artifact-1",
  "contractName": "BuyMeACoffee",
  "sourceName": "contracts/BuyMeACoffee.sol",
  "abi": [
    {
      "inputs": [],
      "stateMutability": "nonpayable",
      "type": "constructor"
    },
    {
      "anonymous": false,
      "inputs": [
        {
          "indexed": true,
          "internalType": "address",
          "name": "from",
          "type": "address"
        },
        {
          "indexed": false,
          "internalType": "string",
          "name": "name",
          "type": "string"
        },
        {
          "indexed": false,
          "internalType": "string",
          "name": "message",
          "type": "string"
        },
        {
          "indexed": false,
          "internalType": "uint256",
          "name": "amount",
          "type": "uint256"
        },
        {
          "indexed": false,
          "internalType": "uint256",
          "name": "timestamp",
          "type": "uint256"
        }
      ],
      "name": "BuyCoffee",
      "type": "event"
    },
    {
      "inputs": [
        {
          "internalType": "string",
          "name": "name",
          "type": "string"
        },
        {
          "internalType": "string",
          "name": "message",
          "type": "string"
        }
      ],
      "name": "buyCoffee",
      "outputs": [],
      "stateMutability": "payable",
      "type": "function"
    },
    {
      "inputs": [],
      "name": "memos",
      "outputs": [
        {
          "components": [
            {
              "internalType": "address",
              "name": "sender",
              "type": "address"
            },
            {
              "internalType": "string",
              "name": "name",
              "type": "string"
            },
            {
              "internalType": "string",
              "name": "message",
              "type": "string"
            },
            {
              "internalType": "uint256",
              "name": "timestamp",
              "type": "uint256"
            }
          ],
          "internalType": "struct BuyMeACoffee.Memo[]",
          "name": "",
          "type": "tuple[]"
        }
      ],
      "stateMutability": "view",
      "type": "function"
    },
    {
      "inputs": [],
      "name": "recipient",
      "outputs": [
        {
          "internalType": "address",
          "name": "",
          "type": "address"
        }
      ],
      "stateMutability": "view",
      "type": "function"
    },
    {
      "inputs": [],
      "name": "setMyselfAsRecipient",
      "outputs": [],
      "stateMutability": "nonpayable",
      "type": "function"
    },
    {
      "inputs": [],
      "name": "withdraw",
      "outputs": [],
      "stateMutability": "nonpayable",
      "type": "function"
    }
  ],
  "bytecode": "0x608060405234801561001057600080fd5b50336000806101000a81548173ffffffffffffffffffffffffffffffffffffffff021916908373ffffffffffffffffffffffffffffffffffffffff160217905550610cce806100606000396000f3fe60806040526004361061004a5760003560e01c8063204206e11461004f5780633ccfd60b1461006b57806365a9218a1461008257806366d003ac146100ad5780637a705cfa146100d8575b600080fd5b610069600480360381019061006491906107e1565b6100ef565b005b34801561007757600080fd5b50610080610279565b005b34801561008e57600080fd5b50610097610325565b6040516100a49190610a67565b60405180910390f35b3480156100b957600080fd5b506100c2610508565b6040516100cf9190610a98565b60405180910390f35b3480156100e457600080fd5b506100ed610531565b005b60003411610132576040517f08c379a000000000000000000000000000000000000000000000000000000000815260040161012990610b10565b60405180910390fd5b600160405180608001604052803373ffffffffffffffffffffffffffffffffffffffff16815260200184815260200183815260200142815250908060018154018082558091505060019003906000526020600020906004020160009091909190915060008201518160000160006101000a81548173ffffffffffffffffffffffffffffffffffffffff021916908373ffffffffffffffffffffffffffffffffffffffff16021790555060208201518160010190805190602001906101f79291906105e4565b5060408201518160020190805190602001906102149291906105e4565b506060820151816003015550503373ffffffffffffffffffffffffffffffffffffffff167f5aa337292fa92273ff008f137cfc41600cbd31c10c5ef04f1e19b67a8ae8b1228383344260405161026d9493929190610b78565b60405180910390a25050565b600047116102bc576040517f08c379a00000000000000000000000000000000000000000000000000000000081526004016102b390610c17565b60405180910390fd5b60008054906101000a900473ffffffffffffffffffffffffffffffffffffffff1673ffffffffffffffffffffffffffffffffffffffff166108fc479081150290604051600060405180830381858888f19350505050158015610322573d6000803e3d6000fd5b50565b60606001805480602002602001604051908101604052809291908181526020016000905b828210156104ff57838290600052602060002090600402016040518060800160405290816000820160009054906101000a900473ffffffffffffffffffffffffffffffffffffffff1673ffffffffffffffffffffffffffffffffffffffff1673ffffffffffffffffffffffffffffffffffffffff1681526020016001820180546103d290610c66565b80601f01602080910402602001604051908101604052809291908181526020018280546103fe90610c66565b801561044b5780601f106104205761010080835404028352916020019161044b565b820191906000526020600020905b81548152906001019060200180831161042e57829003601f168201915b5050505050815260200160028201805461046490610c66565b80601f016020809104026020016040519081016040528092919081815260200182805461049090610c66565b80156104dd5780601f106104b2576101008083540402835291602001916104dd565b820191906000526020600020905b8154815290600101906020018083116104c057829003601f168201915b5050505050815260200160038201548152505081526020019060010190610349565b50505050905090565b60008060009054906101000a900473ffffffffffffffffffffffffffffffffffffffff16905090565b60004711156105a25760008054906101000a900473ffffffffffffffffffffffffffffffffffffffff1673ffffffffffffffffffffffffffffffffffffffff166108fc479081150290604051600060405180830381858888f193505050501580156105a0573d6000803e3d6000fd5b505b336000806101000a81548173ffffffffffffffffffffffffffffffffffffffff021916908373ffffffffffffffffffffffffffffffffffffffff160217905550565b8280546105f090610c66565b90600052602060002090601f0160209004810192826106125760008555610659565b82601f1061062b57805160ff1916838001178555610659565b82800160010185558215610659579182015b8281111561065857825182559160200191906001019061063d565b5b509050610666919061066a565b5090565b5b8082111561068357600081600090555060010161066b565b5090565b6000604051905090565b600080fd5b600080fd5b600080fd5b600080fd5b6000601f19601f8301169050919050565b7f4e487b7100000000000000000000000000000000000000000000000000000000600052604160045260246000fd5b6106ee826106a5565b810181811067ffffffffffffffff8211171561070d5761070c6106b6565b5b80604052505050565b6000610720610687565b905061072c82826106e5565b919050565b600067ffffffffffffffff82111561074c5761074b6106b6565b5b610755826106a5565b9050602081019050919050565b82818337600083830152505050565b600061078461077f84610731565b610716565b9050828152602081018484840111156107a05761079f6106a0565b5b6107ab848285610762565b509392505050565b600082601f8301126107c8576107c761069b565b5b81356107d8848260208601610771565b91505092915050565b600080604083850312156107f8576107f7610691565b5b600083013567ffffffffffffffff81111561081657610815610696565b5b610822858286016107b3565b925050602083013567ffffffffffffffff81111561084357610842610696565b5b61084f858286016107b3565b9150509250929050565b600081519050919050565b600082825260208201905092915050565b6000819050602082019050919050565b600073ffffffffffffffffffffffffffffffffffffffff82169050919050565b60006108b082610885565b9050919050565b6108c0816108a5565b82525050565b600081519050919050565b600082825260208201905092915050565b60005b838110156109005780820151818401526020810190506108e5565b8381111561090f576000848401525b50505050565b6000610920826108c6565b61092a81856108d1565b935061093a8185602086016108e2565b610943816106a5565b840191505092915050565b6000819050919050565b6109618161094e565b82525050565b600060808301600083015161097f60008601826108b7565b50602083015184820360208601526109978282610915565b915050604083015184820360408601526109b18282610915565b91505060608301516109c66060860182610958565b508091505092915050565b60006109dd8383610967565b905092915050565b6000602082019050919050565b60006109fd82610859565b610a078185610864565b935083602082028501610a1985610875565b8060005b85811015610a555784840389528151610a3685826109d1565b9450610a41836109e5565b925060208a01995050600181019050610a1d565b50829750879550505050505092915050565b60006020820190508181036000830152610a8181846109f2565b905092915050565b610a92816108a5565b82525050565b6000602082019050610aad6000830184610a89565b92915050565b600082825260208201905092915050565b7f63616e6e6f742073656e64207a65726f20616d6f756e74000000000000000000600082015250565b6000610afa601783610ab3565b9150610b0582610ac4565b602082019050919050565b60006020820190508181036000830152610b2981610aed565b9050919050565b6000610b3b826108c6565b610b458185610ab3565b9350610b558185602086016108e2565b610b5e816106a5565b840191505092915050565b610b728161094e565b82525050565b60006080820190508181036000830152610b928187610b30565b90508181036020830152610ba68186610b30565b9050610bb56040830185610b69565b610bc26060830184610b69565b95945050505050565b7f6e6f2062616c616e636520746f20776974686472617700000000000000000000600082015250565b6000610c01601683610ab3565b9150610c0c82610bcb565b602082019050919050565b60006020820190508181036000830152610c3081610bf4565b9050919050565b7f4e487b7100000000000000000000000000000000000000000000000000000000600052602260045260246000fd5b60006002820490506001821680610c7e57607f821691505b60208210811415610c9257610c91610c37565b5b5091905056fea2646970667358221220eeaae8007897830871abdb474e8825ec7e7800603715cadc0f566370582a109064736f6c63430008090033",
  "linkReferences": {},
  "deployedLinkReferences": {}
}